{
  "contractName": "Vote",
  "abi": [
    {
      "anonymous": false,
      "inputs": [
        {
          "indexed": false,
          "internalType": "address",
          "name": "_owner",
          "type": "address"
        },
        {
          "indexed": false,
          "internalType": "bytes32",
          "name": "_topic",
          "type": "bytes32"
        }
      ],
      "name": "AddVoteTopic",
      "type": "event"
    },
    {
      "anonymous": false,
      "inputs": [
        {
          "indexed": false,
          "internalType": "address",
          "name": "_owner",
          "type": "address"
        },
        {
          "indexed": false,
          "internalType": "bytes32",
          "name": "_topic",
          "type": "bytes32"
        },
        {
          "indexed": false,
          "internalType": "bytes32",
          "name": "_option",
          "type": "bytes32"
        }
      ],
      "name": "AddVoteTopicOption",
      "type": "event"
    },
    {
      "anonymous": false,
      "inputs": [
        {
          "indexed": false,
          "internalType": "address",
          "name": "_owner",
          "type": "address"
        },
        {
          "indexed": false,
          "internalType": "bytes32",
          "name": "_topic",
          "type": "bytes32"
        },
        {
          "indexed": false,
          "internalType": "bool",
          "name": "_locked",
          "type": "bool"
        }
      ],
      "name": "LockVoteTopic",
      "type": "event"
    },
    {
      "anonymous": false,
      "inputs": [
        {
          "indexed": false,
          "internalType": "address",
          "name": "_from",
          "type": "address"
        },
        {
          "indexed": false,
          "internalType": "bytes32",
          "name": "_topic",
          "type": "bytes32"
        },
        {
          "indexed": false,
          "internalType": "bytes32",
          "name": "_option",
          "type": "bytes32"
        }
      ],
      "name": "VoteTopicOption",
      "type": "event"
    },
    {
      "inputs": [
        {
          "internalType": "uint256",
          "name": "",
          "type": "uint256"
        }
      ],
      "name": "topics",
      "outputs": [
        {
          "internalType": "bytes32",
          "name": "",
          "type": "bytes32"
        }
      ],
      "stateMutability": "view",
      "type": "function"
    },
    {
      "inputs": [
        {
          "internalType": "bytes32",
          "name": "",
          "type": "bytes32"
        }
      ],
      "name": "voting",
      "outputs": [
        {
          "internalType": "bytes32",
          "name": "topic",
          "type": "bytes32"
        },
        {
          "internalType": "address",
          "name": "owner",
          "type": "address"
        },
        {
          "internalType": "bool",
          "name": "locked",
          "type": "bool"
        }
      ],
      "stateMutability": "view",
      "type": "function"
    },
    {
      "inputs": [],
      "name": "getTopicsLength",
      "outputs": [
        {
          "internalType": "uint256",
          "name": "",
          "type": "uint256"
        }
      ],
      "stateMutability": "view",
      "type": "function"
    },
    {
      "inputs": [
        {
          "internalType": "bytes32",
          "name": "topic",
          "type": "bytes32"
        },
        {
          "internalType": "uint256",
          "name": "i",
          "type": "uint256"
        }
      ],
      "name": "getOption",
      "outputs": [
        {
          "internalType": "bytes32",
          "name": "",
          "type": "bytes32"
        }
      ],
      "stateMutability": "view",
      "type": "function"
    },
    {
      "inputs": [
        {
          "internalType": "bytes32",
          "name": "topic",
          "type": "bytes32"
        },
        {
          "internalType": "address",
          "name": "sender",
          "type": "address"
        }
      ],
      "name": "getVotedOption",
      "outputs": [
        {
          "internalType": "bytes32",
          "name": "",
          "type": "bytes32"
        }
      ],
      "stateMutability": "view",
      "type": "function"
    },
    {
      "inputs": [
        {
          "internalType": "bytes32",
          "name": "topic",
          "type": "bytes32"
        }
      ],
      "name": "getOptionsLength",
      "outputs": [
        {
          "internalType": "uint256",
          "name": "",
          "type": "uint256"
        }
      ],
      "stateMutability": "view",
      "type": "function"
    },
    {
      "inputs": [
        {
          "internalType": "bytes32",
          "name": "topic",
          "type": "bytes32"
        }
      ],
      "name": "getOwner",
      "outputs": [
        {
          "internalType": "address",
          "name": "",
          "type": "address"
        }
      ],
      "stateMutability": "view",
      "type": "function"
    },
    {
      "inputs": [
        {
          "internalType": "bytes32",
          "name": "topic",
          "type": "bytes32"
        }
      ],
      "name": "getLocked",
      "outputs": [
        {
          "internalType": "bool",
          "name": "",
          "type": "bool"
        }
      ],
      "stateMutability": "view",
      "type": "function"
    },
    {
      "inputs": [
        {
          "internalType": "bytes32",
          "name": "topic",
          "type": "bytes32"
        },
        {
          "internalType": "bytes32",
          "name": "option",
          "type": "bytes32"
        }
      ],
      "name": "getTotalVotes",
      "outputs": [
        {
          "internalType": "uint256",
          "name": "",
          "type": "uint256"
        }
      ],
      "stateMutability": "view",
      "type": "function"
    },
    {
      "inputs": [
        {
          "internalType": "bytes32",
          "name": "topic",
          "type": "bytes32"
        }
      ],
      "name": "lock",
      "outputs": [],
      "stateMutability": "nonpayable",
      "type": "function"
    },
    {
      "inputs": [
        {
          "internalType": "bytes32",
          "name": "topic",
          "type": "bytes32"
        },
        {
          "internalType": "bytes32",
          "name": "option",
          "type": "bytes32"
        }
      ],
      "name": "voteTopicOption",
      "outputs": [],
      "stateMutability": "nonpayable",
      "type": "function"
    },
    {
      "inputs": [
        {
          "internalType": "bytes32",
          "name": "topic",
          "type": "bytes32"
        }
      ],
      "name": "addTopic",
      "outputs": [],
      "stateMutability": "nonpayable",
      "type": "function"
    },
    {
      "inputs": [
        {
          "internalType": "bytes32",
          "name": "topic",
          "type": "bytes32"
        },
        {
          "internalType": "bytes32",
          "name": "option",
          "type": "bytes32"
        }
      ],
      "name": "addTopicOption",
      "outputs": [],
      "stateMutability": "nonpayable",
      "type": "function"
    }
  ],
  "bytecode": "0x608060405234801561001057600080fd5b50610a44806100206000396000f3fe608060405234801561001057600080fd5b50600436106100ce5760003560e01c8063646b4b101161008c578063a92a4fae11610066578063a92a4fae14610221578063deb931a214610229578063e0e7365c14610262578063eed8f4f8146102a7576100ce565b8063646b4b10146101b057806372696cb4146101d3578063a86b1ad8146101f0576100ce565b80622aa5d6146100d357806301670ba9146100f85780630cc9de991461011557806318d9adab146101535780635449576f1461017057806358edc35a14610193575b600080fd5b6100f6600480360360408110156100e957600080fd5b50803590602001356102ca565b005b6100f66004803603602081101561010e57600080fd5b5035610460565b6101416004803603604081101561012b57600080fd5b50803590602001356001600160a01b0316610583565b60408051918252519081900360200190f35b6101416004803603602081101561016957600080fd5b50356105af565b6100f66004803603604081101561018657600080fd5b50803590602001356105cd565b610141600480360360208110156101a957600080fd5b50356107f0565b610141600480360360408110156101c657600080fd5b5080359060200135610805565b6100f6600480360360208110156101e957600080fd5b5035610835565b61020d6004803603602081101561020657600080fd5b5035610919565b604080519115158252519081900360200190f35b610141610939565b6102466004803603602081101561023f57600080fd5b503561093f565b604080516001600160a01b039092168252519081900360200190f35b61027f6004803603602081101561027857600080fd5b503561095e565b604080519384526001600160a01b039092166020840152151582820152519081900360600190f35b610141600480360360408110156102bd57600080fd5b508035906020013561098c565b600082815260016020526040902054821461031a576040805162461bcd60e51b815260206004820152600b60248201526a1d1bdc08195e1a5cdd195960aa1b604482015290519081900360640190fd5b60008281526001602081905260409091200154600160a01b900460ff161561037a576040805162461bcd60e51b815260206004820152600e60248201526d1d1bdc081dd85cc81b1bd8dad95960921b604482015290519081900360640190fd5b60008281526001602081815260408084208585526005019091529091205460ff16151514156103e1576040805162461bcd60e51b815260206004820152600e60248201526d1bdc1d1a5bdb88195e1a5cdd195960921b604482015290519081900360640190fd5b6000828152600160208181526040808420600281018054808601825590865283862001869055858552600501825292839020805460ff1916909217909155815133815290810184905280820183905290517ffced79c3cc005c0b129d8db7015b7963b4da976d5e0802733cde4ecbe83782089181900360600190a15050565b60008181526001602052604090205481146104b6576040805162461bcd60e51b81526020600482015260116024820152701d1bdc08191a59081b9bdd08195e1a5cdd607a1b604482015290519081900360640190fd5b6000818152600160208190526040909120015433906001600160a01b03168114610513576040805162461bcd60e51b81526020600482015260096024820152686e6f2061636365737360b81b604482015290519081900360640190fd5b6000828152600160208181526040928390208201805460ff60a01b1916600160a01b17905582516001600160a01b03851681529081018590528083019190915290517fa823b3a537c56fe525f68fe651edaaafd5473819828f6b164dc002d21d9f6bab9181900360600190a15050565b60008281526001602090815260408083206001600160a01b038516845260030190915290205492915050565b600081815481106105bc57fe5b600091825260209091200154905081565b6000828152600160205260409020548214610623576040805162461bcd60e51b81526020600482015260116024820152701d1bdc08191a59081b9bdd08195e1a5cdd607a1b604482015290519081900360640190fd5b60008281526001602081905260409091200154600160a01b900460ff1615610683576040805162461bcd60e51b815260206004820152600e60248201526d1d1bdc081dd85cc81b1bd8dad95960921b604482015290519081900360640190fd5b600082815260016020908152604080832084845260050190915290205460ff166106eb576040805162461bcd60e51b81526020600482015260146024820152731bdc1d1a5bdb88191a59081b9bdd08195e1a5cdd60621b604482015290519081900360640190fd5b60008281526001602090815260408083203380855260039091019092529091205415610746576040805162461bcd60e51b81526020600482015260056024820152641d9bdd195960da1b604482015290519081900360640190fd5b60008381526001602081815260408084206001600160a01b038616855260038101835281852087905586855260040190915290912054610785916109ad565b60008481526001602090815260408083208684526004018252918290209290925580516001600160a01b0384168152918201859052818101849052517fb6ec24a73a42261d160c630fd25b039c9d3fd5eb6cac661dfcd7bb4a71dcbf6d9181900360600190a1505050565b60009081526001602052604090206002015490565b600082815260016020526040812060020180548390811061082257fe5b9060005260206000200154905092915050565b600081815260016020526040902054811415610886576040805162461bcd60e51b815260206004820152600b60248201526a1d1bdc08195e1a5cdd195960aa1b604482015290519081900360640190fd5b6000818152600160208181526040808420858155830180546001600160a01b03191633908117909155845493840185559380527f290decd9548b62a8d60345a988386fc84ba6bc95484008f6362f93160ef3e5639092018490558151928352820183905280517feeff3e6b0e8cf8c34ac4b89c3fc423f7d91930bba5355ce476444ad47f74f3299281900390910190a150565b60009081526001602081905260409091200154600160a01b900460ff1690565b60005490565b600090815260016020819052604090912001546001600160a01b031690565b600160208190526000918252604090912080549101546001600160a01b03811690600160a01b900460ff1683565b60009182526001602090815260408084209284526004909201905290205490565b600082820183811015610a07576040805162461bcd60e51b815260206004820152601b60248201527f536166654d6174683a206164646974696f6e206f766572666c6f770000000000604482015290519081900360640190fd5b939250505056fea2646970667358221220df16c54fd6fcb56575571e4831412d584102de323ecb5750dac8680cacd5864564736f6c63430007000033",
  "immutableReferences": {},
  "source": "// SPDX-License-Identifier: MIT\npragma solidity ^0.7.0;\nimport \"./SafeMath.sol\";\n\ncontract Vote {\n  using SafeMath for uint256;\n  struct Votes {\n    bytes32 topic;\n    address owner;\n    bool locked;\n    bytes32[] options;\n    mapping(address => bytes32) voted;\n    mapping(bytes32 => uint256) votes;\n    mapping(bytes32 => bool) existedOptions;\n  }\n  bytes32[] public topics;\n  mapping(bytes32 => Votes) public voting;\n\n  event LockVoteTopic(\n    address _owner,\n    bytes32 _topic,\n    bool _locked\n  );\n   \n  event AddVoteTopic(\n    address _owner,\n    bytes32 _topic\n  );\n  \n  event AddVoteTopicOption(\n    address _owner,\n    bytes32 _topic,\n    bytes32 _option\n  );\n  \n  event VoteTopicOption(\n    address _from,\n    bytes32 _topic,\n    bytes32 _option\n  );\n\n  // return length of topic\n  function getTopicsLength() public view returns (uint256) {\n      return topics.length;\n  }\n\n  // return option\n  function getOption(bytes32 topic, uint256 i) public view returns (bytes32) {\n      return voting[topic].options[i];\n  }\n\n  // return voted option\n  function getVotedOption(bytes32 topic, address sender) public view returns (bytes32) {\n      return voting[topic].voted[sender];\n  }\n\n  // return length of option\n  function getOptionsLength(bytes32 topic) public view returns (uint256) {\n      return voting[topic].options.length;\n  }\n\n  // return owner of topic\n  function getOwner(bytes32 topic) public view returns (address) {\n      return voting[topic].owner;\n  }\n\n  // return whether vote was locked\n  function getLocked(bytes32 topic) public view returns (bool) {\n      return voting[topic].locked;\n  }\n\n  // return total votes for option of topic\n  function getTotalVotes(bytes32 topic, bytes32 option) public view returns (uint256) {\n      return voting[topic].votes[option];\n  }\n\n  // lock the vote\n  function lock(bytes32 topic) public {\n      if (voting[topic].topic != topic) {\n          revert(\"top did not exist\");\n      }\n      address sender = msg.sender;\n      if (voting[topic].owner != sender) {\n          revert(\"no access\");\n      }\n      voting[topic].locked = true;\n      emit LockVoteTopic(sender, topic, true);\n  }\n\n  // vote for option in the topic\n  function voteTopicOption(bytes32 topic, bytes32 option) public {\n      if (voting[topic].topic != topic) {\n          revert(\"top did not exist\");\n      }\n      if (voting[topic].locked) {\n        revert(\"top was locked\");\n      }\n      if (voting[topic].existedOptions[option] == false) {\n          revert(\"option did not exist\");\n      }\n      address sender = msg.sender;\n      if (voting[topic].voted[sender] != 0) {\n          revert(\"voted\");\n      }\n      voting[topic].voted[sender] = option;\n      voting[topic].votes[option] = voting[topic].votes[option].add(1);\n      emit VoteTopicOption(sender, topic, option);\n  }\n\n  // add topic\n  function addTopic(bytes32 topic) public {\n      if (voting[topic].topic == topic) {\n          revert(\"top existed\");\n      }\n      voting[topic].topic = topic;\n      voting[topic].owner = msg.sender;\n      topics.push(topic);\n      emit AddVoteTopic(msg.sender, topic);\n  }\n\n  // add option for topic\n  function addTopicOption(bytes32 topic, bytes32 option) public {\n      if (voting[topic].topic != topic) {\n          revert(\"top existed\");\n      }\n      if (voting[topic].locked) {\n        revert(\"top was locked\");\n      }\n      if (voting[topic].existedOptions[option] == true) {\n          revert(\"option existed\");\n      }\n      voting[topic].options.push(option);\n      voting[topic].existedOptions[option] = true;\n      emit AddVoteTopicOption(msg.sender, topic, option);\n  }\n}\n",
  "sourcePath": "/Users/peterlai/workshop/contract/contracts/Vote.sol",
  "compiler": {
    "name": "solc",
    "version": "0.7.0+commit.9e61f92b.Emscripten.clang"
  },
  "schemaVersion": "3.3.1",
  "updatedAt": "2020-10-23T05:06:22.947Z",
  "devdoc": {
    "kind": "dev",
    "methods": {},
    "version": 1
  },
  "userdoc": {
    "kind": "user",
    "methods": {},
    "version": 1
  }
}