{
  "contractName": "Vote",
  "abi": [
    {
      "anonymous": false,
      "inputs": [
        {
          "indexed": false,
          "internalType": "address",
          "name": "_owner",
          "type": "address"
        },
        {
          "indexed": false,
          "internalType": "bytes32",
          "name": "_topic",
          "type": "bytes32"
        }
      ],
      "name": "AddVoteTopic",
      "type": "event"
    },
    {
      "anonymous": false,
      "inputs": [
        {
          "indexed": false,
          "internalType": "address",
          "name": "_owner",
          "type": "address"
        },
        {
          "indexed": false,
          "internalType": "bytes32",
          "name": "_topic",
          "type": "bytes32"
        },
        {
          "indexed": false,
          "internalType": "bytes32",
          "name": "_option",
          "type": "bytes32"
        }
      ],
      "name": "AddVoteTopicOption",
      "type": "event"
    },
    {
      "anonymous": false,
      "inputs": [
        {
          "indexed": false,
          "internalType": "address",
          "name": "_from",
          "type": "address"
        },
        {
          "indexed": false,
          "internalType": "bytes32",
          "name": "_topic",
          "type": "bytes32"
        },
        {
          "indexed": false,
          "internalType": "bytes32",
          "name": "_option",
          "type": "bytes32"
        }
      ],
      "name": "VoteTopic",
      "type": "event"
    },
    {
      "inputs": [],
      "name": "owner",
      "outputs": [
        {
          "internalType": "address",
          "name": "",
          "type": "address"
        }
      ],
      "stateMutability": "view",
      "type": "function"
    },
    {
      "inputs": [
        {
          "internalType": "bytes32",
          "name": "",
          "type": "bytes32"
        }
      ],
      "name": "voting",
      "outputs": [
        {
          "internalType": "bytes32",
          "name": "topic",
          "type": "bytes32"
        }
      ],
      "stateMutability": "view",
      "type": "function"
    }
  ],
  "bytecode": "0x6080604052600080546001600160a01b0319163317905534801561002257600080fd5b5060e0806100316000396000f3fe6080604052348015600f57600080fd5b506004361060325760003560e01c80638da5cb5b146037578063e0e7365c146059575b600080fd5b603d6085565b604080516001600160a01b039092168252519081900360200190f35b607360048036036020811015606d57600080fd5b50356094565b60408051918252519081900360200190f35b6000546001600160a01b031681565b600260208190526000918252604090912001548156fea2646970667358221220888006158a0cf2452b4e28e67191a26ada5cfcd5ff97aeb7709a1a262de6dda064736f6c63430006050033",
  "immutableReferences": {},
  "source": "pragma solidity ^0.6.5;\nimport \"./SafeMath.sol\";\n\ncontract Vote {\n  using SafeMath for uint256;\n  struct Votes {\n    mapping(address => bytes32) voted;\n    mapping(bytes32 => uint256) votes;\n    bytes32 topic;\n    mapping(bytes32 => bool) existedOptions;\n    bytes32[] options;\n  }\n  address public owner = msg.sender;\n  bytes32[] topics;\n  mapping(bytes32 => Votes) public voting;\n  \n  modifier onlyOwner() {\n      if (msg.sender != owner) {\n        _;\n      }\n  }\n   \n  event AddVoteTopic(\n    address _owner,\n    bytes32 _topic\n  );\n  \n  event AddVoteTopicOption(\n    address _owner,\n    bytes32 _topic,\n    bytes32 _option\n  );\n  \n  event VoteTopic(\n    address _from,\n    bytes32 _topic,\n    bytes32 _option\n  );\n\n  // function voteTopicOption(bytes32 topic, bytes32 option) public {\n  //     if (voting[topic].topic != topic) {\n  //         revert();\n  //     }\n  //     if (voting[topic].existedOptions[option] == false) {\n  //         revert();\n  //     }\n  //     address sender = msg.sender;\n  //   //   if (voting[topic].voted[sender] != 0) {\n  //   //       revert();\n  //   //   }\n  //     voting[topic].voted[sender] = topic;\n  //     voting[topic].votes[option].add(1);\n  //     emit VoteTopic(sender, topic, option);\n  // }\n  // function addTopic(bytes32 topic) public {\n  //     if (voting[topic].topic == topic) {\n  //         revert();\n  //     }\n  //     voting[topic].topic = topic;\n  //     emit AddVoteTopic(msg.sender, topic);\n  // }\n  \n  // function addTopicOption(bytes32 topic, bytes32 option) public {\n  //   //   if (voting[topic].topic != 0) {\n  //   //       revert();\n  //   //   }\n  //     if (voting[topic].existedOptions[option] == true) {\n  //         revert();\n  //     }\n  //     voting[topic].options.push(option);\n  //     voting[topic].existedOptions[option] = true;\n  //     emit AddVoteTopicOption(msg.sender, topic, option);\n  // }\n}\n",
  "sourcePath": "/Users/peterlai/workshop/contract/contracts/Vote.sol",
  "compiler": {
    "name": "solc",
    "version": "0.6.5+commit.f956cc89.Emscripten.clang"
  },
  "schemaVersion": "3.3.1",
  "updatedAt": "2020-10-19T06:09:34.798Z",
  "devdoc": {
    "methods": {}
  },
  "userdoc": {
    "methods": {}
  }
}